:020000040800F2
:100000009009002029020008B12800089921000861
:1000100039270008E9150008CB3C00080000000063
:10002000000000000000000000000000E12F0008B8
:100030008D1F0008000000009F2F0008E931000814
:10004000430200084302000843020008430200087C
:10005000430200084302000843020008430200086C
:10006000430200084302000843020008430200085C
:10007000430200084302000843020008430200084C
:10008000430200084302000843020008430200083C
:10009000430200084302000843020008430200082C
:1000A000430200084302000843020008430200081C
:1000B00043020008B1320008C932000843020008B8
:1000C00043020008430200084302000843020008FC
:1000D00043020008E53B0008430200084302000811
:1000E00043020008430200084302000843020008DC
:1000F00043020008430200084302000843020008CC
:1001000043020008430200084302000843020008BB
:1001100043020008430200084302000843020008AB
:10012000430200084302000843020008430200089B
:1001300000F002F800F04FF80AA090E8000C8244AA
:100140008344AAF10107DA4501D100F044F8AFF287
:10015000090EBAE80F0013F0010F18BFFB1A43F0A5
:10016000010318471C5300003C530000103A24BF01
:1001700078C878C1FAD8520724BF30C830C144BF0C
:1001800004680C607047000000230024002500264E
:10019000103A28BF78C1FBD8520728BF30C148BFEA
:1001A0000B607047662904F0DA80642900F0C28091
:1001B000732900F0AA84002070471FB500F0A7F94A
:1001C00000F0A8FC04000020002103F0C9FEE0605C
:1001D0001FBD10B510BD00F09DFD1146FFF7EDFFEE
:1001E00003F0A2FE00F0BBFD03B4FFF7F2FF03BC77
:1001F00003F0E3FD0B49D1F800C04A685CF8043B0A
:100200001068184442F8040B8C4528BFA1F1DC0C9F
:100210008A4228BFA1F1DC02C1F800C04A6020F088
:1002200000407047240300200948804709480047E0
:10023000FEE7FEE7FEE7FEE7FEE7FEE7FEE7FEE796
:10024000FEE7FEE704480549054A064B70470000F3
:10025000513200083101000890030020900900206D
:100260009005002090050020704700000FB41CB5D9
:10027000074B06AA7B4469460090059800F01BFCDA
:100280000020694600F02AFC1CBC5DF814FB00004D
:100290006508000070B5044685690068C10601D58F
:1002A000302600E02026C00707D070BDD4E9012128
:1002B00030469047206A401C20626D1EF6D570BD06
:1002C00070B5044685690078C00707D170BDD4E9D0
:1002D000012120209047206A401C20626D1EF6D527
:1002E00070BD70B50C460546012A05D028788006F9
:1002F00000D5EA69002302E0012305E05B1C93427C
:1003000002D2E05C0028F9D1A869E618C01AA861F9
:10031000286A184428622846FFF7BCFF04E0D5E9A4
:10032000012114F8010B9047B442F8D32846FFF797
:10033000C7FF70BD2DE9F0410646002410687529FD
:10034000314616A510D0AFF30080002802DA4042F3
:1003500013A507E031688A0701D512A502E0490715
:1003600004D511A5012401E0AFF3008000210A2289
:1003700006F1240709E0B0FBF2FCB0FBF2F302FB4C
:100380001C00303078541846491C0028F3D123460D
:100390002A463046BDE8F04100F01FB900000000D9
:1003A0002D0000002B000000200000002DE9F05F70
:1003B000894604464FF0000ADFF824B1FB44C0F838
:1003C00020A02046E168884700287DD0252806D057
:1003D000D4E901219047206A401C2062F1E7002502
:1003E0005F462046E16888472028064607DB312E15
:1003F00005D2B81910F8200C08B10543F1E7A80799
:1004000001D525F00405C4F81CA00027C4F818A0E5
:100410002A2E09D0304603F0C9FC38B304EB870814
:10042000303EC8F8186019E059F8041B204604EB68
:1004300087029161E1688847012F064618D1E0697B
:10044000002820DA25F020051DE0D8F8180000EB80
:10045000800006EB40003038C8F818002046E168FC
:100460008847064603F0A2FC0028EED1012F0AD0EF
:100470002E2E08D12046E16888477F1C0646022FB1
:1004800045F02005C4DBA069002803DA404245F0AE
:100490000105A061E80701D025F01005A6B1A6F17D
:1004A0004100192802D8203645F400654A463146F5
:1004B000204625604D46FFF775FE60B1012807D044
:1004C000ED1D25F0070000E007E000F1080978E7DE
:1004D00005F1040975E730467AE7206ABDE8F09F28
:1004E000185000000B4910B5A1F17C020A4CC2E97A
:1004F0003712372106E000EB104342F82130074B5A
:1005000000FB03400B1EA1F10101F4DC10BD012032
:10051000E8E70000C4020020E119D666CD0D010015
:1005200010B5203AC0F00B80B1E81850203AA0E88E
:100530001850B1E81850A0E81850BFF4F5AF5FEAC2
:10054000027C24BFB1E81850A0E8185044BF18C975
:1005500018C0BDE810405FEA827C24BF51F8043B1C
:1005600040F8043B08BF7047D20728BF31F8023B70
:1005700048BF11F8012B28BF20F8023B48BF00F804
:10058000012B70474FF0000200B513469446964683
:10059000203922BFA0E80C50A0E80C50B1F1200196
:1005A000BFF4F7AF090728BFA0E80C5048BF0CC044
:1005B0005DF804EB890028BF40F8042B08BF7047A2
:1005C00048BF20F8022B11F0804F18BF00F8012B14
:1005D000704770477047704770472DE9F0470D46E8
:1005E00099469246044600F124080168880604D51D
:1005F000E06921F01001216000E00120A84201DD46
:10060000471B00E00027A1697A1902EB0900081ACC
:10061000A0612078C00602D42046FFF73BFE0026EA
:1006200008E0D4E901211AF806009047206A401C2E
:10063000761C20624E45F4DB2078C0060AD52046A1
:10064000FFF728FE06E0D4E9012130209047206A18
:10065000401C2062381EA7F10107F4DC07E0D4E952
:10066000012118F805009047206A401C2062281ECE
:10067000A5F10105F3DC2046FFF722FE20780006F5
:1006800002D50220BDE8F0870120FBE770472DE985
:10069000FF4F0C461E464FF0FF378BB0D2E90001EA
:1006A000DDF860800A908A46C1F30A5505B93D46D7
:1006B000002108464FF00000BAF1000F00F440009E
:1006C00005DA00EB80004FF4400101EA50004FEAE8
:1006D0009059B9F1010F00DDB9460A9850EA4A0075
:1006E0000ED044F61050A5F2FF3545432F14B8F153
:1006F000000F1ED07542291E1EDDC9F100021CE04C
:10070000B8F1010F4FF0000001D0302103E0F243B7
:1007100005E02154401CB042FBDB304600220021A2
:1007200021540B99C1F80880C1E900200FB0BDE841
:10073000F08FBD1B6D1CDEE74A4600DA694206A851
:1007400000F072FA06AB93E8070003AB83E80700FA
:1007500050460A9900F04CFB8DE80700A0F50050C8
:100760001F3800900398002D0ADD42F21F014A460F
:100770000844002303A90390684600F0B5FD09E092
:10078000A0F500504A461F38002303A9039068468D
:1007900000F0BFFD8DE807000004000C03D04FF00F
:1007A000FF30410800E01046B8F1000F03D00022EE
:1007B000009215461EE0751E05D400F0AFF93032E8
:1007C00062556D1EF9D5B3460122084302D00022BE
:1007D0007F1C04E02078302801D100227F1E002AEF
:1007E000099784D01DE0112D07DA00F097F9303217
:1007F00062556D1C50EA0102F5D1084302D0009801
:10080000C8B10EE00021681E05E0235C625C635401
:100810002254401E491C8142F7DBAB46A81B401EF8
:100820000990002004F80B000B98099AC0F8088082
:10083000C0E9002B7AE711264FF0000857E72DE9B1
:10084000F04F88460446D21D22F0070191B0D1E94D
:100850000001CDE90A0103F095FA02460B98C00F9A
:1008600001D02D2007E02068810701D52B2002E070
:10087000202101EAC000032A099001D0072A05DBE4
:1008800003464146204600F08FF90BE120788006B0
:1008900001D5E06900E00620B8F1650F814606D079
:1008A000B8F1660F18D0B8F1670F70D131E00020B1
:1008B000B9F1110F009001DB112301E009F10103EF
:1008C0000AAA01A90CA8FFF7E2FEDDE90C700026D8
:1008D00009F10105834647E001204B4600904FF0A7
:1008E00000470AAA01A90CA8FFF7D1FEDDE90DB067
:1008F0000C995D46002610B909F101000D18B9EBFD
:10090000050003D4C0F1FF3609F10105A5EB09008C
:100910002BE0B9F1010F01DA4FF001090020B9F124
:10092000110F0090484601DD112300E003460AAA9A
:1009300001A90CA8FFF7ABFEDDE90C704D460026BF
:100940008346207800070AD4AB4500DA5D4601A84B
:10095000012D04DD411911F8011C302907D04F4544
:1009600002DA17F1040F04DA012082460FE06D1E4F
:10097000EEE7002F02DCED1B3E4403E0781CA842AA
:1009800000DD7D1CB81B00F1010A4FF00047207804
:10099000000703D4AA4501DB4FF0FF3A0021B7F16D
:1009A000004F0DF143088DF8431024D002202B2373
:1009B000002F01DA7F422D230A21021EA0F101003F
:1009C00000DC5FB197FBF1FC97FBF1F201FB1C7CB3
:1009D00017460CF1300C08F801CDEEE7A8F1010044
:1009E00003702188090501D5452100E06521A0F1AA
:1009F000010800F8011C09980FA9A1EB0807FF1DC9
:100A000000B10120411901EBEA70A1693844081ACC
:100A1000401EA0612078C00602D42046FFF73AFCB1
:100A2000099828B1D4E901219047206A401C20622E
:100A30002078C00622D52046FFF72CFC1EE0002EB1
:100A400004DBB34502DD01A8805D00E03020D4E97D
:100A500001219047206A401C2062761CAAF1010007
:100A60005FEA000A0AD100F055F8C0680168405CEE
:100A7000D4E901219047206A401C2062281EA5F17C
:100A80000105DCDC07E0D4E9012118F8010B9047EF
:100A9000206A401C2062381EA7F10107F3DC2046C3
:100AA000FFF70EFC032011B041E6000001694A1C6B
:100AB00002610878704700B58FB0CDE9013100219F
:100AC000059105497944CDE9031011466846FFF7C1
:100AD0006DFC0FB000BD0000E5FFFFFF0A6802F8E3
:100AE000010B0A60704710B5436913B1AFF3008082
:100AF00001E0FFF7F6FB012010BD127800F12401A0
:100B00000A7000224A700122EDE711684FF0FF32AF
:100B1000E9E70000004870474C03002030B5B0F111
:100B20000A024FEA900E71F100034EEA817EB0EBAB
:100B30000E0061EB91014FEA101E4EEA017E10EBB0
:100B40000E0041EB11114FEA102E4EEA016E10EB30
:100B50000E0041EB11214FEA104E4EEA014E10EB10
:100B60000E0041EB1141401841F100014FEAD00065
:100B700040EA41704FEAD10110EB80054FEA810451
:100B800044EA907444EB01046D1944EB0404521BD5
:100B9000A3414FF0000348BF0A3200D530BD401CCE
:100BA00041F1000130BD00002DE9F0411F4604462F
:100BB00003260168072A01F4006004DB08B116A5CA
:100BC00005E016A503E008B115A500E015A521F084
:100BD00010002060A069C01EA0610FB1401EA0617E
:100BE0002046FFF757FB4FB1D4E901213846904723
:100BF000206A401C2062C01C206206E0206AFAE7DE
:100C0000D4E9012115F8010B9047761EF8D2204651
:100C1000FFF756FBBDE8F0814E414E006E616E005D
:100C2000494E4600696E66002DE9F047814616463A
:100C30008AB0354878440DC88DE80D0032487844B4
:100C4000801C03AC0DC884E80D0041F69B300844BD
:100C5000372190FBF1F290FBF1F5A5F1800501FB46
:100C600012041B3C02D56442012000E00020DFF8A2
:100C700098A080460027FA44AAF1BE0A0EE0E007D9
:100C80000AD03246684607EB470101230AEB81018F
:100C900000F03FFB8DE8070064107F1C002CEED1B4
:100CA000194F7F44AE3F19E0E80715D007EB041059
:100CB0000DF1180A90E80E008AE80E00C068F042B4
:100CC00001D1981908903246012306A903A800F023
:100CD00020FB03AB83E807006D10641C002DE3D1FB
:100CE0004FF0010332466946B8F1000F03A802D065
:100CF00000F0FAFA01E000F00CFBC9E90001C9F8C4
:100D000008200AB0BDE8F08730480000004870476E
:100D10002C0300207546FFF7F9FFAE460500694633
:100D2000534620F00700854618B020B5FFF78AFA31
:100D3000BDE820404FF000064FF000074FF00008DC
:100D40004FF0000B21F00701AC46ACE8C009ACE85D
:100D5000C009ACE8C009ACE8C0098D46704710B5C1
:100D60000446AFF300802046BDE81040FFF73CBAD0
:100D70004FF0013C50F8042B51F8043B9A4221D12A
:100D8000A2EB0C03934313EACC1317D150F8042BB6
:100D900051F8043B9A4215D1A2EB0C03934313EA9A
:100DA000CC130BD150F8042B51F8043B9A4209D1D3
:100DB000A2EB0C03934313EACC13DBD04FF00000FB
:100DC000704700BFD01A01BAB1FA81F101F01801E1
:100DD00022FA01F0CB40C1F12001DBB2C0B2C01A4F
:100DE0002CFA01F3D11A914311EAC311E6D17047ED
:100DF0005FEA400C08BF91F0000F4FEA8C234FEAE6
:100E0000C12243EA51514FEA1C5018BF00F5F0408F
:100E10004FEA300018BF41F000415FEA6C5C00F01F
:100E20002980BCF1FF3F08BF40F080407047130CA1
:100E300006BF12044FF0100C4FF0000C130E04BF4D
:100E400012020CF1080C130F04BF12010CF1040C78
:100E5000930F04BF92000CF1020CD30F04BF520099
:100E60000CF1010C11464FF00002A0F11F00A0EBA5
:100E70000C00704711F0004F08BF704731F000417F
:100E80003FF4D5AF0B0C06BF09044FF0100C4FF028
:100E9000000C0B0E04BF09020CF1080C0B0F04BF71
:100EA00009010CF1040C8B0F04BF89000CF1020C3A
:100EB000CB0F04BF49000CF1010CCCF12003A0EBD7
:100EC0000C0022FA03F302FA0CF241EA030100F1EA
:100ED0000100704720F07F4C80EA030023F07F4739
:100EE000ACEB070303F57C5300F0004003F1FF0374
:100EF0002DE980494FEA154B09B44FEA144325EA1E
:100F00000B4E24EA03480FF2042606EB1327490888
:100F10003E785FEA320203FB0667C7F5000707FB6E
:100F200006F64FEA54374FEAD64606F1020607FBAB
:100F3000066CCCF1005C4FEA1C472CEA074C07FB1F
:100F400006F40CFB06F504EB15464FEA961634BF83
:100F500000204FF000404FEAD13706FB07FC4FEA74
:100F60001C4C0CFB0BF7D21B03FB0CF761EB0701CE
:100F70000CFB0EF7B0EB074072EB17420CFB08F7C7
:100F800034BFA2EB0742B2EB074261EB17414FEAD5
:100F90000C444FEA910706FB07FC4FEA1C4C0CFB84
:100FA0000BF7B0EBC74072EB573203FB0CF734BFC3
:100FB000A2EBC742B2EBC74261EB57310CFB0EF715
:100FC000B0EBC70072EB57720CFB08F734BFA2EB13
:100FD000C702B2EBC70261EB5771039F4FEA816111
:100FE00041EA921104EBCC044FEAD1374FEA826216
:100FF00006FB07FC42EA90124FEA80604FEA1C4C65
:101000000CFB0BF7D21B03FB0CF761EB07010CFB8E
:101010000EF7B0EB074072EB17420CFB08F734BF3A
:10102000A2EB0742B2EB074261EB17414FEA8C5546
:101030004FEA910704EB9C2406FB07FC4FEA1C4C8B
:101040000CFB0BF7B0EBC74072EB573203FB0CF70E
:1010500034BFA2EBC742B2EBC74261EB57310CFB86
:101060000EF7B0EBC70072EB57720CFB08F734BFFA
:10107000A2EBC702B2EBC70261EB577115EB4C252F
:101080004FEA816141EA92114FEA82624FEAD13719
:1010900042EA901206FB07FC44F100044FEA80602C
:1010A0004FEA1C4C0CFB0BF7D21B03FB0CF761EB5C
:1010B00007010CFB0EF7B0EB074072EB17420CFB7D
:1010C00008F734BFA2EB0742B2EB074261EB1741CE
:1010D00015EB1C154FEA813141EA92414FEA823209
:1010E00042EA90424FEA80304FEA0C7644F1000425
:1010F00048EA03434EEA0B484FF0000EB2EB080CEF
:1011000071EB030724BF624639464EEB0E0E4FF0DB
:10111000000B0018524149414BEB0B0BB2EB080C92
:1011200071EB03077BF1000B24BF624639464EEB9F
:101130000E0E4FF0000B0018524149414BEB0B0BC8
:10114000B2EB080C71EB03077BF1000B24BF624686
:1011500039464EEB0E0E51EA020718BF46F0010663
:1011600016EB0E7655F1000254F1000103D5BDE8EF
:101170008901BDE80088BDE88901BDE80048B619CD
:10118000524141EB0101A3F10103704780807F7E52
:101190007D7C7B7A797877767675747372717170ED
:1011A0006F6E6E6D6C6C6B6A6A696868676666659F
:1011B0006464636362616160605F5F5E5E5D5D5C2D
:1011C0005C5B5B5A5A59595858575756565555559E
:1011D0005454535352525251515050504F4F4F4EFE
:1011E0004E4D4D4D4C4C4C4B4B4B4A4A4A4949494C
:1011F000484848474747474646464545454444448E
:10120000444343434342424242414141002B9C46B6
:1012100030D477002BD01CB54FEA370703B44FF01A
:1012200010004FF01001BAF1000F06D0BCF1000F12
:10123000DCBF40F0080040F008014FF000000FBC98
:10124000BDE810400BF1010BBBF1010F08BF5FEAD5
:10125000170722BF12F1010211F101014FF0004105
:1012600043F1000300F0004043EA00007047F9D367
:101270005708D0E746EA064613F1400F4FEA1646F4
:101280001FDD13F1200FDFBF16430A460021203374
:101290005B42BED0C3F1200746EA064602FA07F7D2
:1012A0004FEA164646EA0706C3F1200722FA03F280
:1012B00001FA07F721FA03F14FF0000342EA0702AF
:1012C000A7E746EA020646EA06464FEA164646EA17
:1012D0000106BCBF46EA0646360C4FF000034FF04D
:1012E00000024FF0000194E72DE9804C9A469346A6
:1012F00070B491E8380007C831EA400C48BF34EABE
:10130000430C03D5FFF7E6FDFFF780FFF0BCBDE817
:10131000008C2DE9804C9A46934670B491E83800D1
:1013200007C810F0804F08BF13F0804F03D100F0C2
:1013300005F8FFF76BFFF0BCBDE8008C20F07F479D
:1013400080EA030023F07F4C07EB0C03A3F57C53EA
:1013500000F00040A3F1FE0392F0000F00F0B38014
:1013600095F0000F00F077802DE901494FEA114018
:101370004FEA144621EA004800FB06FC24EA06472F
:1013800008FB06F607FB08F800FB07F718EB064812
:101390004CEB164C4FEA124B18EB07484FEA154638
:1013A0004CEB174022EA0B4E0BFB06FC25EA0647E6
:1013B0000EFB06F607FB0EFE0BFB07F71EEB064EB9
:1013C0004CEB164C4FF000061EEB074E4CEB174B48
:1013D00018EB0B0840F1000018EB0E0B58EB00085F
:1013E00040F100008F1A4FF000013CBFC943661B5B
:1013F00014BFB5EB040C00213CBFC943F61B4FEAF8
:1014000017444EEA8E0E27EA04454FEA1C4704FBB8
:1014100007622CEA074C05FB07F70CFB05F604FBFB
:101420000CFC16EB074642EB174216EB0C4642EB60
:101430001C421BEB060658EB0202414146EA9E069F
:1014400001D5BDE80189B619524141EB0101A3F173
:101450000103BDE801894FEA14454FEA114724EA28
:10146000054621EA074C05FB07F406FB07F70CFBD2
:1014700006F105FB0CFC11EB074144EB17444FEA66
:10148000124711EB0C4144EB1C4422EA074C05FBCC
:1014900007F206FB07F70CFB06F605FB0CFC16EB48
:1014A000074642EB174216EB0C4642EB1C456A1806
:1014B00054F1000148BF7047B619524141EB010198
:1014C000A3F10103704795F0000F37D04FEA1142A6
:1014D0004FEA144721EA024624EA074C02FB07F1CF
:1014E00006FB07F70CFB06F402FB0CFC14EB0744AD
:1014F00041EB17414FEA154714EB0C4441EB1C41FB
:1015000025EA074C02FB07F506FB07F70CFB06F67E
:1015100002FB0CFC16EB074645EB174516EB0C4699
:1015200045EB1C42121951F1000148BF7047B61932
:10153000524141EB0101A3F1010370474FEA144509
:101540004FEA114724EA054621EA074C05FB07F15B
:1015500006FB07F70CFB06F24FF0000605FB0CFC40
:1015600012EB074241EB174112EB0C4251EB1C41CD
:1015700048BF7047921841EB0101A3F10103704786
:1015800008B50121042001F01BFD10208DF8030097
:101590000420ADF8000003208DF8020069460448DD
:1015A00000F026FD0421024800F0B6FD08BD000051
:1015B0000008014070B504460D4600260FE00421E6
:1015C000084800F0ABFD284602F01CFC0421054849
:1015D00000F0A2FD284602F015FC701CC6B2A6421F
:1015E000EDDB70BD0008014000BFFEE708B501213A
:1015F000082001F0E5FC4FF44060ADF80000102039
:101600008DF8030003208DF802006946014800F0C0
:10161000EFFC08BD000C014010B5044600F0D2FDFF
:101620002CB14FF400610E4800F078FD04E04FF457
:1016300000610B4800F070FD022002F009FC4FF43D
:101640008061074800F06AFD022002F001FC4FF4BF
:101650008061034800F060FD022002F0F9FB10BD3C
:10166000000C014070B500244FF40061174800F0F1
:1016700055FD00F093FD00251EE06006040E0220DB
:1016800002F0E6FB4FF48061104800F047FD0220B5
:1016900002F0DEFB4FF400610C4800F034FD08B1AD
:1016A00044F001044FF48061084800F035FD022049
:1016B00002F0CEFB681CC5B2082DDEDB4FF4806162
:1016C000024800F029FD204670BD0000000C0140DA
:1016D00010B500F077FD4FF400610F4800F01EFDDB
:1016E000022002F0B5FB4FF480610B4800F016FDBC
:1016F000022002F0ADFB4FF40061074800F00CFD42
:10170000022002F0A5FB4FF48061034800F004FDC5
:10171000022002F09DFB10BD000C014010B500F04E
:1017200051FD4FF400610B4800F0F6FC022002F07E
:101730008FFB4FF48061074800F0EEFC022002F0BE
:1017400087FB4FF40061034800F0E8FC022002F040
:101750007FFB10BD000C014070B50446002600F070
:1017600031FD002521E004F0800028B14FF4006134
:101770001E4800F0D3FC04E04FF400611B4800F069
:10178000CBFC022002F064FB4FF48061174800F0AC
:10179000C5FC022002F05CFB4FF48061134800F0AE
:1017A000BBFC6006040E681CC5B2082DDBDB4FF4E1
:1017B00000610E4800F0B2FC00F0F0FC022002F0E4
:1017C00047FB4FF48061094800F0A8FC022002F0BA
:1017D0003FFB4FF40061054800F095FC06434FF4D1
:1017E0008061024800F098FC304670BD000C01405A
:1017F0002DE9F04180460D4616461F4627B3FFF7F8
:1018000067FFD020FFF7A8FFD8B94046FFF7A4FF35
:10181000FFF75EFFD120FFF79FFF00240FE0FFF7E7
:1018200021FF2870701EA04203D10120FFF7F4FEB3
:1018300002E00020FFF7F0FE6D1C601CC4B2B44251
:10184000EDDBFFF76BFF14E0FFF742FFD020FFF75F
:1018500083FF60B94046FFF77FFF002405E028784A
:10186000FFF77AFF6D1C601CC4B2B442F7DBFFF7D0
:1018700055FFBDE8F08100001CB50446002C68D07F
:101880000123072269460020FFF7B2FF9DF8000000
:1018900000F00F009DF80010C1F3021101EB81016F
:1018A00000EB41006A4988719DF8010000F00F00CB
:1018B0009DF80110C1F3021101EB810100EB410021
:1018C000634948719DF8020000F00F009DF8021076
:1018D000C1F3021101EB810100EB41005C49087189
:1018E0009DF8030000F00F009DF80310C1F30211F2
:1018F00001EB810100EB4100554988709DF804001F
:1019000000F00F009DF80410C1F3021101EB8101FA
:1019100000EB41004E49C8709DF8050000F00F0033
:101920009DF80510C1F3021101EB810100EB4100AC
:10193000474948709DF8060000F00F009DF806101A
:10194000C1F3021101EB810100EB41004049087035
:101950007CE03F4880790A2190FBF1F201FB120004
:101960003B4989790A2291FBF2F140EA0110C0B2A9
:101970008DF80000364840790A2190FBF1F201FB16
:101980001200334949790A2291FBF2F140EA011031
:10199000C0B28DF801002E4800790A2190FBF1F2C7
:1019A00001FB12012A4800790A2290FBF2F041EA79
:1019B0000010C0B28DF80200254880780A2190FB03
:1019C000F1F201FB1200224989780A2291FBF2F11F
:1019D00040EA0110C0B28DF803001D48C0780A210A
:1019E00090FBF1F201FB12001949C9780A2291FB20
:1019F000F2F140EA0110C0B28DF8040014484078BA
:101A00000A2190FBF1F201FB1200114949780A22E8
:101A100091FBF2F140EA0110C0B28DF805000C48CC
:101A200000780A2190FBF1F201FB120008490978C5
:101A30000A2291FBF2F140EA0110C0B28DF80600D3
:101A40000023072269461846FFF7D2FE1CBD00009E
:101A50006600002070B50446FFF73AFED020FFF77D
:101A60007BFE68B92046FFF777FEFFF731FED120F5
:101A7000FFF772FEFFF7F6FD05460120FFF7CCFDEC
:101A8000FFF74CFE284670BD2DE9F04704461120B3
:101A9000FFF7E0FF05461220FFF7DCFF861105F097
:101AA000800038B1E843C5B2F043401CC6B22D20D7
:101AB000207001E020202070304602F0FBFA07463B
:101AC0004FF07A5102F00AFB8146284602F0F2FA02
:101AD0000746494602F08CFA8146484602F05CFA15
:101AE00007463A460B4603A12046FEF7BFFBBDE87A
:101AF000F087000025322E326600000000B589B064
:101B0000F448007850B90120F2490870F248F349CE
:101B10000A6802608A88828089798171EE48C0787B
:101B20000090ED4843780278EDA101A8FEF79EFBF6
:101B30000C2301AA0321002001F008FAED480078E7
:101B4000052827D2DFE800F0030A11181F000C2334
:101B5000E9A20421002001F0F9F922E00C23EAA215
:101B60000421002001F0F2F91BE00C23EAA2042179
:101B7000002001F0EBF914E00C23EBA2042100207B
:101B800001F0E4F90DE00C23EBA20421002001F0A8
:101B9000DDF906E00C23ECA20421002001F0D6F9C7
:101BA00000BF00BFD3480078042811DDD148007879
:101BB000052806D10C23E8A20721002001F0C6F970
:101BC0000CE00C23E8A20721002001F0BFF905E09A
:101BD0000C23E9A20721002001F0B8F902F05EF918
:101BE000062877D2DFE800F0760377E3FEFCC148F1
:101BF0000078052866D2DFE800F003172E3A4E0081
:101C0000B54800780A2190FBF1F0092806D1B248C6
:101C1000007890FBF1F201FB120002E0AE48007880
:101C20000A30AD4908704DE0AB4800780A2190FBBE
:101C3000F1F201FB1200092807D1A748007890FBB8
:101C4000F1F000EB8000400002E0A3480078401C67
:101C5000A149087036E0A04840780C2803DA9E4875
:101C60004078401C00E001209B4948702AE09A48D7
:101C7000C0780A2190FBF1F0032806D19648C0787D
:101C800090FBF1F201FB120002E09348C0780A30A9
:101C90009149C87016E09048C0780A2190FBF1F293
:101CA00001FB1200092807D18B48C07890FBF1F0A6
:101CB00000EB8000400002E08748C078401C864965
:101CC000C87000BF00BF64210120FFF773FCC8206B
:101CD00002F098F8D2E08748007805285ED2DFE865
:101CE00000F003132A3646007B4800780A2190FB57
:101CF000F1F018B9784800785A3002E07648007858
:101D00000A387549087049E0734800780A2190FB49
:101D1000F1F201FB120040B96F48007890FBF1F03E
:101D200000EB80004000093002E06B480078401E64
:101D30006949087032E068484078012803DD664848
:101D40004078401E00E00C206349487026E062485D
:101D5000C0780A2190FBF1F018B95F48C0781E30B6
:101D600002E05D48C0780A385B49C87016E05A48FE
:101D7000C0780A2190FBF1F201FB120040B95648ED
:101D8000C07890FBF1F000EB80004000093002E0E9
:101D90005148C078401E5049C87000BF00BF642140
:101DA0000120FFF707FCC82002F02CF866E051483C
:101DB0000078002803DD4F480078401E00E0062030
:101DC0004C49087064210120FFF7F4FB00BF02F0CA
:101DD00065F80128FBD002F061F80328F7D04DE048
:101DE00019E0FFE743480078062803DA4148007805
:101DF000401C00E000203F49087064210120FFF7EB
:101E0000D9FB00BF02F04AF80228FBD002F046F8E6
:101E10000428F7D032E037480078052802D0062899
:101E20001CD114E001F058FE2B4800782B490870B3
:101E30002948407848702848C078C8700020FFF7CB
:101E40001BFD0020504908702249087006E004205C
:101E50004D49087000201F49087000BF00BF642171
:101E60000120FFF7A7FB00BF02F018F80528FBD000
:101E700000F01EFF00201F49087000BF00BF164879
:101E8000C0781F2802DD1F201349C870124840780F
:101E9000022806D11048C0781D2802DD1D200E49F9
:101EA000C8700D48407804280BD00B4840780628AD
:101EB00007D009484078092803D0074840780B2804
:101EC00006D10548C0781E2802DD1E200249C870D0
:101ED00009B000BD18000020190000206600002095
:101EE00020203230253032642F253032642F2530C7
:101EF0003264000017000020202020205E202020D7
:101F0000202020202000000020202020205E2020F3
:101F10002020202020000000202020202020202021
:101F20005E202020200000002020202020202020D3
:101F300020205E20200000002020202020202020C3
:101F40002020205E200000002020202020202020B3
:101F500020202020200000002D3E536176652020A7
:101F60002020204261636B00202053617665202091
:101F7000202D3E4261636B00202053617665202056
:101F80002020204261636B000000002070470000A9
:101F900010B51348007810B10020124908601048AD
:101FA000007830B90F4800680A2802D901200C498E
:101FB000087001F091FF01280BD10020084908703A
:101FC000084908600D2308A20021702000F0BEFF20
:101FD00005E00D2305A20021702000F0B7FF10BD21
:101FE00000000020040000202D4100002D4E0000C4
:101FF0002DE9F041024600250026002000230024A0
:10200000002791F803C00CF00F0591F803C00CF005
:10201000100CBCF1000F03D091F802C04CEA05058A
:1020200091F800C0BCF1000F31D0146800202BE003
:102030004FF0010C0CFA00F3B1F800C00CEA0306F3
:102040009E4220D183004FF00F0C0CFA03F7BC43E3
:1020500005FA03FC4CEA040491F803C0BCF1280F14
:1020600006D14FF0010C0CFA00FCC2F814C00AE0D3
:1020700091F803C0BCF1480F05D14FF0010C0CFAE8
:1020800000FCC2F810C0401C0828D1D31460B1F87D
:1020900000C0BCF1FF0F34DD546800202EE000F1D9
:1020A000080C4FF0010808FA0CF3B1F800C00CEA74
:1020B00003069E4221D183004FF00F0C0CFA03F768
:1020C000BC4305FA03FC4CEA040491F803C0BCF1DC
:1020D000280F05D100F1080C08FA0CF8C2F814809A
:1020E00091F803C0BCF1480F07D100F1080C4FF084
:1020F000010808FA0CF8C2F81080401C0828CED35A
:102100005460BDE8F0810246002093680B400BB19B
:10211000012000E000207047416170470161704775
:1021200010B507480088401C05490880084600880B
:10213000B0F5967F03DD0020088001F0CDFC10BDD6
:102140001000002010B5044624B102210448FFF716
:10215000E5FF03E002210248FFF7DEFF10BD0000AB
:10216000000C014008B50121082000F029FF1020D3
:102170008DF803000220ADF8000003208DF8020066
:1021800069460448FFF734FF02210248FFF7C4FF05
:1021900008BD0000000C014000BFFEE708B50121AA
:1021A000082000F00DFF4FF40060ADF8000048205B
:1021B0008DF8030069460248FFF71AFF08BD0000CA
:1021C000000C014008B50121082000F0F9FE4FF491
:1021D0000060ADF8000010208DF8030003208DF89A
:1021E000020069460148FFF703FF08BD000C0140EB
:1021F00010B54FF480710948FFF790FF4FF400715C
:102200000648FFF78BFF4FF400710448FFF784FF87
:102210004FF480710148FFF77FFF10BD000C0140B3
:1022200010B54FF480710748FFF778FF4FF4007145
:102230000448FFF771FF4FF400710248FFF76EFF8B
:1022400010BD0000000C014010B54FF4807104482F
:10225000FFF764FF4FF480710148FFF75DFF10BD89
:10226000000C014000B591B01E48807900901D48D7
:10227000437902791CA109A8FDF7F8FF0D2309AAEB
:102280000221002000F062FE1648C0780090154838
:10229000437802781AA109A8FDF7E8FF0D2309AADF
:1022A0000421002000F052FE01A8FFF7EDFB002002
:1022B0008DF8090001AA18A109A8FDF7D7FF0D2381
:1022C00009AA0621002000F041FE16A109A8FDF789
:1022D000CDFF0D2309AA0721502000F037FE11B0D1
:1022E00000BD00006600002054696D653E3A25304F
:1022F00032643A253032643A2530326400000000FE
:10230000446174653E3A3230253032642F253032D4
:10231000642F25303264000054656D703E3A257399
:10232000430000002D3E4D656E75000008B501218B
:10233000082000F045FE48208DF8030046F2E0300A
:10234000ADF8000003208DF8020069460848FFF749
:102350004FFE28208DF803004FF48050ADF80000A8
:1023600002208DF8020069460148FFF741FE08BDD2
:10237000000C014010B501F091FD05280DD104209D
:102380000649087064210120FFF714F900BF01F02D
:1023900085FD0528FBD000F08BFC10BD000000205F
:1023A00010B526480078042847D02448007805282E
:1023B00043D02248007806283FD001F09BFD012839
:1023C00002D0022838D11BE01C480078022807D12F
:1023D00000201A49087064210320FFF7EBF807E09A
:1023E0000220164908704FF448710120FFF7E2F807
:1023F00000BF01F07FFD0128FBD000F059FC1BE07D
:102400000E480078032807D100200C490870642189
:102410000320FFF7CFF807E00320084908704FF4C6
:1024200048710120FFF7C6F800BF01F063FD0228E4
:10243000FBD000F03DFC00BF00BF10BD000000203D
:1024400010B51B480088401C1949088008460088C0
:1024500064282BDD1748007868B917480088401CAD
:102460001549088008460088B0F5965F0FDD012009
:10247000104908700BE010480088401E0E49088083
:1024800008460088022802DA00200A4908700B4832
:10249000007830B1084801884FF0804001F043F8DF
:1024A00004E000214FF0804001F03DF810BD000035
:1024B0004C0000204E0000204A0000204200002076
:1024C00010B51B480088401C194908800846008840
:1024D00014282BDD1748007868B917480088401C7D
:1024E0001549088008460088B0F5FA7F0FDD012005
:1024F000104908700BE010480088401E0E49088003
:1025000008460088022802DA00200A4908700B48B1
:10251000007830B1084801884FF0804001F001F8A0
:1025200004E000214FF0804000F0FBFF10BD0000F0
:102530004600002048000020440000204200002007
:1025400010B50D488079052190FBF1F201FB1200D6
:1025500070B90A48007870B901200849087000F085
:10256000A9F8322001F04EFC002000F0A3F802E0B0
:1025700000200249087010BD6600002015000020F0
:1025800000B589B00121084600F00AFD01210C20A8
:1025900000F016FD0320ADF8200018208DF8230070
:1025A00003208DF8220008A92548FFF721FD4FF4EC
:1025B000E150ADF818000020ADF81400ADF81A0095
:1025C000ADF8160005A94FF0804000F0AFFF702075
:1025D000ADF804000120ADF806004FF49670ADF898
:1025E0000A000220ADF80C0001A9400700F0EEFE41
:1025F0000120ADF806009620ADF80A0001A94FF0C1
:10260000804000F02FFF0821C80600F07DFF012167
:10261000880700F0B2FE0121880700F093FE012137
:10262000880700F09EFE00214FF0804000F079FF07
:1026300000214FF0804000F076FF09B000BD00009F
:1026400000080140012803D10121044A117003E070
:1026500010B90021014A11707047000042000020AB
:1026600008B50121182000F0ABFC10208DF8030004
:10267000C002ADF8000003208DF8020069460B4847
:10268000FFF7B6FC4FF40050ADF80000694608486B
:10269000FFF7AEFC4FF400410448FFF73FFD4FF455
:1026A00000510348FFF73AFD08BD0000000C01404F
:1026B0000010014002014FF400519140044A1161A1
:1026C00002014FF400419140024A1160704700003E
:1026D00000100140100C01401FB50121022000F044
:1026E0005FFC40F2E730ADF808004720ADF8040089
:1026F0000020ADF80A00ADF8060001A90D4800F071
:1027000015FF012211460B4800F057FE1D208DF8E1
:10271000000000208DF8010003208DF80200012048
:102720008DF80300684600F0C5F80121014800F06B
:1027300018FE1FBD0004004000BFFEE710B54A4868
:10274000007830B90D2349A20321002000F0FEFBE0
:1027500005E00D2348A20321002000F0F7FB4248CA
:102760000078012806D10D2346A20521002000F0A3
:10277000EDFB05E00D2346A20521002000F0E6FB5D
:1027800039480078022806D10D2344A207210020F1
:1027900000F0DCFB05E00D2342A20721002000F041
:1027A000D5FB01F07BFB06285CD2DFE800F05B0381
:1027B0001D041E3700BF2C480078002803DD2A487E
:1027C0000078401E00E002202749087064210120A3
:1027D000FEF7F0FE00BF01F061FB0128FBD001F025
:1027E0005DFB0328F7D03DE000BF1F4800780228BA
:1027F00003DA1D480078401C00E000201A490870E8
:1028000064210120FEF7D6FE00BF01F047FB02283D
:10281000FBD001F043FB0428F7D023E012480078F6
:1028200020B1012806D002280CD107E005201F495D
:10283000087007E006201D49087003E000201B49CE
:10284000087000BF00BF64210120FEF7B3FE00BF87
:1028500001F024FB0528FBD000F02AFA00200249F1
:10286000087000BF00BF10BD160000202D3E53654C
:102870007420446174650000202053657420446115
:10288000746500002D3E5365742054696D65000029
:1028900020205365742054696D6500002D3E42610F
:1028A000636B000020204261636B00000000002089
:1028B0007047000070B5002100230F22C47804B3D4
:1028C000154C246804F4E064C4F5E064210AC1F105
:1028D0000403CA40447804FA03F184781440214385
:1028E00009010E4C0678A155047804F01F05012457
:1028F000AC4005786D11AD0005F1E025C5F800414B
:1029000009E0047804F01F050124AC40044D06786A
:10291000761145F8264070BD0CED00E000E400E0C3
:1029200080E100E002490143024A11607047000063
:102930000000FA050CED00E010B50848807940B9B8
:102940000748007840B901200549087000F096F862
:1029500002E000200249087010BD0000660000205F
:102960001400002010B51A4800790A2190FBF1F0FC
:1029700018490870164800790A2190FBF1F201FB12
:10298000120014494870124840790A2190FBF1F076
:10299000104988700E4840790A2190FBF1F201FB42
:1029A00012000C49C8700A4880790A2190FBF1F0A6
:1029B00008490871064880790A2190FBF1F201FB71
:1029C000120004494871084600F014F810BD0000D8
:1029D0006600002008000020012803D10121044ADC
:1029E000117003E010B90021014A11707047000016
:1029F0004000002030B591B00546402101A8FDF708
:102A0000C1FD00240C48007880B100BF0CE001201B
:102A100004EB440101EBC401084A11442A5D895CBE
:102A200001AA5054601CC4B2062CF0DB01A800F0CF
:102A300007F811B030BD0000400000207A530008B4
:102A4000014600200FE00A5C0AB9012200E00022E2
:102A5000130108229A40084B1A6010221A601204CF
:102A60001A60421C90B24028EDDB2022024B1A6013
:102A700012041A6070470000100801407CB5002560
:102A800017E000240BE0FDF7B5FB0A2190FBF1F203
:102A900001FB1200C0B20DF80400601CC4B2062C89
:102AA000F1DB6846FFF7A6FF0F2001F0ABF9681CC9
:102AB000C5B20A2DE5DB7CBD0EB50020009001906B
:102AC0000121042000F07CFA10208DF80B00382042
:102AD000ADF8080003208DF80A0002A90548FFF7A9
:102AE00087FA38210348FFF717FB6846FFF782FF94
:102AF0000EBD0000000801401CB51EA103C9CDE9B0
:102B00000001002400BF0AE000200DF80400684620
:102B1000FFF770FF462001F075F9601CC4B2062C67
:102B2000F2DB002413E08DF805408DF804408DF8A9
:102B300003408DF802408DF801408DF80040684652
:102B4000FFF758FF462001F05DF9601CC4B20A2C63
:102B5000E9DB00240AE00A200DF804006846FFF7CC
:102B600049FF462001F04EF9601CC4B2062CF2DB8E
:102B70001CBD00000A0A0A0A0A0A000010B5FFF785
:102B8000CFFA01F0D7F910BD10B532480078072808
:102B900052D2DFE800F004162838484B4E00FFF709
:102BA000F7F90120FFF7CEFA0120FFF74BFD0120D6
:102BB000FFF712FFFFF756FBFFF7F2FBFFF7DAFB19
:102BC0003EE0FFF7E5F90020FFF7BCFA0020FFF731
:102BD00039FD0020FFF700FFFFF744FBFFF7E0FBA4
:102BE000FFF7C8FB2CE00120FFF7ACFA0120FFF74C
:102BF00029FD0120FFF7F0FEFFF734FBFFF7D0FBC4
:102C0000FFF7B8FB1CE00020FFF79CFA0020FFF75D
:102C100019FD0020FFF7E0FEFFF724FBFFF7C0FBE4
:102C2000FFF7A8FB0CE0FFF789FD09E0FEF766FF60
:102C300006E000F0CDFC03E000200649087000BF6C
:102C400000BF00F043FAFFF777FEFFF78BFEFFF7B8
:102C500077FC10BD0000002008B500F029F81248EC
:102C60000823802200210090084600F040F84FF42D
:102C70007A7001F0C7F800F01BF80C480823802296
:102C800000210090084600F032F80120FFF75AFAC0
:102C90000120FFF7D7FC0120FFF79EFEFFF72CFF76
:102CA00000F006F808BD0000624300086247000813
:102CB00070B5002418E004F1B000002100F063F9C1
:102CC0000021084600F05FF90021102000F05BF9B8
:102CD000002505E00121002000F055F9681CC5B26F
:102CE000802DF7DB601CC4B2082CE4DB70BD2DE93D
:102CF000F05F06460F4690461C46DDF828A04FF0D0
:102D0000000BE11704EB5171C910A4EBC10131B9FB
:102D10002046E11704EB5171C1F3C70506E02046D8
:102D2000E11704EB5171C910491CCDB23D4615E0C5
:102D30002946304600F0A4F8B1460BE059460BF1A5
:102D4000010B1AF80100012100F01DF909F1010041
:102D500000F0FF09C145F1DB681CC5B2A542E7DB05
:102D6000BDE8F09F08B50121082000F029F94FF4D3
:102D70004070ADF8000010208DF8030003208DF89E
:102D8000020069463D48FFF733F94FF440713B4874
:102D9000FFF7C4F9C82001F035F80021AE2000F09B
:102DA000F2F80021084600F0EEF80021102000F0B3
:102DB000EAF80021402000F0E6F80021B02000F001
:102DC000E2F80021812000F0DEF80021FF2000F071
:102DD000DAF80021A12000F0D6F80021A62000F0AA
:102DE000D2F80021A82000F0CEF800213F2000F00A
:102DF000CAF80021C82000F0C6F80021D32000F056
:102E0000C2F80021084600F0BEF80021D52000F0ED
:102E1000BAF80021802000F0B6F80021D82000F098
:102E2000B2F80021052000F0AEF80021D92000F012
:102E3000AAF80021F12000F0A6F80021DA2000F025
:102E4000A2F80021122000F09EF80021DB2000F003
:102E50009AF80021302000F096F800218D2000F033
:102E600092F80021142000F08EF80021AF2000F02D
:102E70008AF8322000F0C6FF08BD0000000C0140B7
:102E800070B504460D4605F1B000002100F07BF856
:102E9000102141EA1410002100F075F804F00F0031
:102EA000002100F070F870BD2DE9F04707460E468E
:102EB0009046994600250024A8F12000C5B27F2F36
:102EC00002DD0027B01CC6B2B9F1100F24D1314683
:102ED0003846FFF7D5FF002408E004EB0511194A36
:102EE000505C012100F04FF8601CC4B2082CF4DBE8
:102EF000701CC1B23846FFF7C3FF002409E004EBA1
:102F0000051108310F4A505C012100F03CF8601CAB
:102F1000C4B2082CF3DB12E031463846FFF7B0FFAD
:102F200000240AE005EB4501074A02EB4101085D78
:102F3000012100F028F8601CC4B2062CF2DBBDE8C9
:102F4000F08700008A4D0008624B00082DE9F0412F
:102F500004460F461546984600260FE0AA5D4346F4
:102F600039462046FFF7A0FF04F10800C4B2782CD0
:102F700002DD0024B81CC7B2701CC6B2A85D0028D0
:102F8000ECD1BDE8F08170B504460D461DB1E0B24C
:102F900000F0E2FE02E0E0B200F0C8FE70BD704753
:102FA00029B1064AD2690243044BDA6104E0034ABC
:102FB000D2698243014BDA61704700000010024081
:102FC00029B1064A92690243044B9A6104E0034A1C
:102FD00092698243014B9A617047000000100240E1
:102FE000704710B500F002F810BD00000CB50020CD
:102FF000019000903348006840F480303149086007
:1030000000BF3048006800F4003000900198401C78
:103010000190009818B90198B0F5A06FF1D1294836
:10302000006800F4003010B10120009001E00020A1
:1030300000900098012843D12348006840F0100018
:10304000214908600846006820F00300086008462F
:10305000006840F0020008601A484068194948605A
:103060000846406848600846406840F48060486010
:103070000846406820F47C1048600846406840F4E8
:10308000E81048600846006840F08070086000BFA3
:103090000C48006800F000700028F9D0094840682A
:1030A00020F00300074948600846406840F00200ED
:1030B000486000BF0348406800F00C000828F9D1C0
:1030C0000CBD0000001002400020024010B51F4857
:1030D0000078072836D2DFE800F0040B1219202709
:1030E0002E000B231AA200210846FFF72FFF2AE02B
:1030F0000B231BA200210846FFF728FF23E00B2328
:103100001BA200210846FFF721FF1CE00B231CA295
:1031100000210846FFF71AFF15E00B231CA200212F
:103120000846FFF713FF0EE00B231DA200210846FF
:10313000FFF70CFF07E00B231DA200210846FFF755
:1031400005FF00E000BF00BF10BD00000000002030
:103150004D6F64653A5745454B55502000000000BF
:103160004D6F64653A534C454550202000000000E7
:103170004D6F64653A4E4F524D414C2000000000A7
:103180004D6F64653A434C4F5345202000000000CA
:103190004D656E753A5345544D454E55000000003F
:1031A0004D656E753A534554444154450000000046
:1031B0004D656E753A53455454494D450000000025
:1031C000042808D14FF0E021096941F004014FF0D3
:1031D000E022116107E04FF0E021096921F00401CC
:1031E0004FF0E02211617047704710B5FFF7C6FC41
:1031F00010BD10B5FFF7C8FC10BD10B54FF4A060AE
:10320000FFF790FB00F0DCFDFFF7ACFDFFF750FD92
:10321000FFF752FCFEF7A6FF0020FEF793FFFFF733
:1032200085F8FFF7ADF9FFF757FAFFF719FA002015
:10323000FFF708FAFEF7DAF900F04EFCFEF7A0F906
:10324000FFF70AFD472140F2E73000F04DF810BDCE
:1032500010B51348006840F00100114908600846A5
:103260004068104908400E494860084600680E4909
:1032700008400B4908600846006820F48020086078
:103280000846406820F4FE0048604FF41F00886044
:10329000FFF7A7FE4FF000600449086010BD000072
:1032A000001002400000FFF8FFFFF6FE08ED00E00E
:1032B00010B50121034800F051F8FFF701F9FFF7BD
:1032C000BFF810BD0004004010B50121054800F012
:1032D00063F828B10121034800F040F8FFF785FFAB
:1032E00010BD0000000800407FB505460C460121D6
:1032F0000420FFF755FEADF80850ADF8044000205B
:10330000ADF80A00ADF8060001A90D4800F00EF96D
:10331000012211460A4800F050F81E208DF80000E6
:1033200000208DF8010001208DF802008DF80300C7
:103330006846FFF7BFFA0121014800F012F87FBD8F
:103340000008004021B1028842F08002028004E0BF
:1033500002884FF67F731A4002807047CA43028288
:10336000704721B1028842F00102028004E0028825
:103370004FF6FE731A400280704731B1B0F8442016
:1033800042F40042A0F8442005E0B0F84420C2F323
:103390000E02A0F84420704730B5024600200023FA
:1033A0000024158A05EA0103958905EA010413B191
:1033B0000CB1012000E0002030BD1AB183890B431D
:1033C000838102E083898B438381704770B5002439
:1033D00000220023058C4FF6FE7635400584028CD2
:1033E0008388048B4FF68F752C40B51E2C400D88BA
:1033F0002C43751E2A400D892A434D882A43144DBB
:10340000A8420BD0134DA84208D0134DA84205D0B6
:10341000124DA84202D0124DA84213D14FF6F775B3
:103420002A404D892A434FF6FB752A408D882A434E
:103430004FF6FF652B404FF6FF552B408D892B43F0
:10344000CD892B4383800483CD888586028470BD1B
:10345000002C014000340140004001400044014084
:103460000048014070B5002400220023058C4FF66F
:10347000EF7635400584028C8388048B48F6FF750F
:103480002C404FF6FF452C400D884FF6FF7606EA9C
:1034900005252C434FF6DF752A400D8906EA0515F0
:1034A0002A434D8806EA05152A43154DA84202D045
:1034B000144DA8421DD14FF67F752A404D894FF615
:1034C000FF7606EA05152A434FF6BF752A408D8818
:1034D00006EA05152A434FF6FF352B404FF2FF75DC
:1034E0002B408D8906EA85052B43CD8906EA8505A3
:1034F0002B4383800483CD880587028470BD000040
:10350000002C0140003401400A460021018B4FF29B
:10351000FF7319404FF6FF7303EA02231943018337
:10352000704781867047018770470000002202883B
:103530001D4B98420ED01D4B98420BD0B0F1804FDE
:1035400008D01B4B984205D01A4B984202D01A4B18
:10355000984204D14FF68F731A404B881A43174B89
:10356000984207D0164B984204D04FF6FF431A40BA
:10357000CB881A4302808B8883850B8803850A4B8E
:1035800098420BD0094B984208D00E4B984205D078
:103590000D4B984202D00D4B984201D10B7A038615
:1035A0000123838270470000002C01400034014059
:1035B0000004004000080040000C004000100040E3
:1035C0000014004000400140004401400048014018
:1035D00000B589B0FE48007850B90120FC49087058
:1035E000FC48FD490A6802608A8882808979817175
:1035F000F84880790090F74843790279F7A101A84B
:10360000FCF734FE0C2301AA03210020FFF79EFCE7
:10361000F748007806282ED2DFE800F0030A1118D8
:103620001F260C23F3A204210020FFF78FFC29E0C2
:103630000C23F4A204210020FFF788FC22E00C23D5
:10364000F4A204210020FFF781FC1BE00C23F5A26B
:1036500004210020FFF77AFC14E00C23F5A20421DA
:103660000020FFF773FC0DE00C23F6A204210020DC
:10367000FFF76CFC06E00C23F6A204210020FFF704
:1036800065FC00BF00BFDA480078052811DDD84886
:103690000078062806D10C23F2A207210020FFF7AC
:1036A00055FC0CE00C23F3A207210020FFF74EFC91
:1036B00005E00C23F3A207210020FFF747FC00F0F0
:1036C000EDFB062871D2DFE800F0700397F0EFEE13
:1036D000C7480078062817D2DFE800F003172E420B
:1036E000596EBC4800790A2190FBF1F0022806D1FE
:1036F000B848007990FBF1F201FB120002E0B548F6
:1037000000790A30B34908716DE0B24800790A21A6
:1037100090FBF1F201FB1200092807D1AD480079B6
:1037200090FBF1F000EB8000400002E0A948007936
:10373000401CA849087156E0A64840790A2190FB30
:10374000F1F0052806D1A348407990FBF1F201FB86
:10375000120002E09F4840790A309E49487142E0D9
:103760009C4840790A2190FBF1F201FB12000928E4
:1037700007D19848407990FBF1F000EB80004000C1
:1037800002E094484079401C924948712BE09148EE
:1037900080790A2190FBF1F0052807D18D488079C6
:1037A00090FBF1F201FB120003E079E18948807996
:1037B0000A308849887116E0864880790A2190FB92
:1037C000F1F201FB1200092807D18248807990FBB1
:1037D000F1F000EB8000400002E07E488079401C60
:1037E0007C49887100BF00BF64210120FDF7E2FE23
:1037F000C82000F007FB53E17D48007806287CD202
:10380000DFE800F003132A3A5464724800790A2171
:1038100090FBF1F018B96F480079143002E06D4860
:1038200000790A386B49087167E06A4800790A2113
:1038300090FBF1F201FB120040B96648007990FB61
:10384000F1F000EB80004000093002E061480079AF
:10385000401E6049087150E05E4840790A2190FBA3
:10386000F1F018B95B484079323002E059484079AC
:103870000A385849487140E0564840790A2190FB7F
:10388000F1F201FB120040B95248407990FBF1F08F
:1038900000EB80004000093002E04E484079401EB5
:1038A0004C49487129E063E049E02FE049488079BC
:1038B0000A2190FBF1F018B946488079323002E0D5
:1038C000444880790A384349887116E04148807934
:1038D0000A2190FBF1F201FB120040B93D488079CA
:1038E00090FBF1F000EB80004000093002E0394825
:1038F0008079401E3749887100BF00BF64210120D4
:10390000FDF758FEC82000F07DFAC9E0384800787D
:10391000002803DD36480078401E00E007203449C7
:10392000087064210120FDF745FE00BF00F0B6FAE3
:103930000128FBD000F0B2FA0328F7D0B0E02C4801
:103940000078072803DA2A480078401C00E00020AD
:103950002749087064210120FDF72CFE00BF00F00C
:103960009DFA0228FBD000F099FA0428F7D097E0DE
:103970001F480078062802D007281CD114E000F068
:10398000ABF814480079144908711248407948711D
:103990001048807988710020FDF76EFF00203D49B6
:1039A00008700B49087006E004203A4908700020AE
:1039B0000749087000BF00BF64210120FDF7FAFD30
:1039C00000BF00F06BFA0528FBD0FFF771F963E048
:1039D000210000202200002066000020202020205E
:1039E000253032643A253032643A253032640000A2
:1039F00020000020202020205E20202020202020C9
:103A00002000000020202020205E202020202020D8
:103A100020000000202020202020205E20202020C8
:103A20002000000020202020202020205E202020B8
:103A300020000000202020202020202020205E20A8
:103A40002000000020202020202020202020205E98
:103A500020000000202020202020202020202020C6
:103A6000200000002D3E536176652020202020425A
:103A700061636B002020536176652020202D3E423B
:103A800061636B0020205361766520202020204256
:103A900061636B000000002000200D49087000BF2A
:103AA00000BF0C480079172802DD1720094908716A
:103AB000084840793B2802DD3B200649487105480B
:103AC00080793B2802DD3B200249887109B000BDA6
:103AD000200000202200002010B50120FDF7CCFEC0
:103AE0003D4880790A2190FBF1F030303B498871E4
:103AF000394880790A2190FBF1F201FB1200303045
:103B00003649C871344840790A2190FBF1F03030D1
:103B10003249C870304840790A2190FBF1F201FB2C
:103B2000120030302D4908712B4800790A2190FB92
:103B3000F1F0303029490870274800790A2190FBBC
:103B4000F1F201FB12003030244948702248C0785D
:103B50000A2190FBF1F03030214908721E48C078EC
:103B60000A2190FBF1F201FB120030301C4948722F
:103B7000194840780A2190FBF1F03030184948711B
:103B8000154840780A2190FBF1F201FB1200303019
:103B90001349887132200870302048700E48007830
:103BA0000A2190FBF1F030300D4988700A48007806
:103BB0000A2190FBF1F201FB120030300849C87075
:103BC000054880780A2190FBF1F201FB12003030A9
:103BD0000349C87210BD0000660000204F0000209D
:103BE0005800002010B540F225511D4800F03EF865
:103BF00010B31B4800F064F8C4B21A48008800F4FF
:103C00000040C8B91748008800F4804060B10A2C11
:103C100003D000201349088020E01248008840F4B7
:103C200000401049088019E00D2C06D10D4800888D
:103C300040F480400B49088010E00A480088C0F337
:103C40000D0009490C5407480088401C05490880AC
:103C500008460088322801DD0020088010BD0000E1
:103C6000003801407E0000204801002070B5024667
:103C7000002400230025002040F66A16B14200D13E
:103C800000BFC1F3421501F01F03012606FA03F33A
:103C9000012D02D19689334006E0022D02D1168A09
:103CA000334001E0968A33400C12012606FA04F4F0
:103CB0001688344013B10CB1012000E0002070BD23
:103CC00001468888C0F30800704700BFFEE7000087
:103CD0002DE9F04105462C464FF480711248FEF75D
:103CE0001BFA00261CE0274607F08007802F04D12E
:103CF000B9000D48FEF712FA04E04FF400710A48CB
:103D0000FEF70AFA6006040E4FF480710648FEF7CB
:103D100005FA4FF480710448FEF7FEF9701CC6B234
:103D2000082EE0DBBDE8F081000C014010B5044630
:103D3000FEF75EFA7820FFF7CBFFFEF785FA00204A
:103D4000FFF7C6FFFEF780FA2046FFF7C1FFFEF738
:103D50007BFAFEF765FA10BD10B50446FEF748FA87
:103D60007820FFF7B5FFFEF76FFA4020FFF7B0FFAE
:103D7000FEF76AFA2046FFF7ABFFFEF765FAFEF79B
:103D80004FFA10BD490050EAC12018BF04204A0D67
:103D900018BF40F0010040F2FF72B2EB515F08BF64
:103DA00040F00200012808BF0520704730380A287B
:103DB00001D20120704700207047014600BF7047C4
:103DC00010B56FF00400FFF7FBF90A4800680A49D4
:103DD000B0FBF1F0094908700846007800EB40019B
:103DE000C1EBC0104FF6FF7101EAC0000449088022
:103DF00010BD00002C00002000127A00740000208A
:103E0000760000200146114A12884A434FF0E02311
:103E10005A6100229A611A46126942F001021A613F
:103E200000BF4FF0E022106900F001021AB100F467
:103E30008032002AF5D04FF0E022126922F0010210
:103E40004FF0E0231A6100229A617047760000204B
:103E50000146114A12784A434FF0E0235A6100228A
:103E60009A611A46126942F001021A6100BF4FF0CE
:103E7000E022106900F001021AB100F48032002A39
:103E8000F5D04FF0E022126922F001024FF0E0235A
:103E90001A6100229A6170477400002010B586B044
:103EA00014220B4901A8FCF73BFB00240CE0094855
:103EB000006801A951F82410084018B9601CC0B26C
:103EC00006B010BD601CC4B2052CF0DB0020F7E783
:103ED000BC530008080C01400548006800F48050FD
:103EE000B0F5805F01D1012070470020FCE70000A1
:103EF000080C01400CB50A4A05CACDE900020021B0
:103F00000AE0084800685DF82120104010B9481CFC
:103F1000C0B20CBD481CC1B20229F2DB0020F8E798
:103F2000D0530008080C0140FFF767F901E0FFF7E4
:103F300060F9FCE708480088401C074908800846EB
:103F40000088B0F57A7F06DD00200880034800680D
:103F5000401C024908607047120000200400002045
:103F600010B500290AD00878002807D00548784401
:103F7000FCF7FEFE002801D0002010BD0248784466
:103F800010BD0000321500002A1500000808A0F539
:103F900000114FEA3101704743004FEAD30C4FEA5A
:103FA0003C0C43401FBF40070CF1605113F0FE4F23
:103FB00070471CF0006F03D100200CF000417047E7
:103FC0000CF0004343EA507010B540EACC0000F01A
:103FD00006F900BF000000924FEA0001FFF7D6BFCC
:103FE0004FF000414FF00000A1F5002170470000A4
:103FF00090EA010F48BF81F0004100F14281421A6E
:104000003CBF801A89184FEAD0524FF07F4C1CEA0F
:10401000410FA2EBD15318BF9CEA026F00F03B8026
:104020004FF0004C4CEA00204CEA012121FA03FC3D
:1040300010EB0C0C1ED202F1FF325FEA1C2040EBA9
:10404000C25038BF70471CF07F0F4FEA400C18BFBA
:10405000BCF17F4F38BF7047C3F12003994008BFC0
:1040600020F00100BCF17F4F38BF7047A0F1C04085
:1040700000F0FBB84FEA3C00000A40EBC25028BFFA
:104080001CF0FF0F4FEA400CE6D018BFBCF17F4F89
:1040900038BF7047EAE79CEA026F05D010EA5C0F70
:1040A00008BF00F00040704710B500F098F800BF5E
:1040B00064FBBE3EB0FA80F310FA03F2C3F19D0335
:1040C0000AD0D90501EB1220530638BF704700F122
:1040D000010008BF20F00100704700004FF47F0C82
:1040E0001CEAD0121EBF1CEAD11392EA0C0F93EA0D
:1040F0000C0F00F0478090EA010F48BF42F4807235
:104100004FF0004C4CEA00204CEA012102EB030284
:10411000A0FB0113A2F50002002918BF43F0010320
:104120005B0028BF4FEA330342EB22425FEA132CC5
:104130004CEBC2502EBFBCEB436FB2F57C0F704707
:104140004FEA036CBCF1004F08BF20F00100B2F54C
:104150007C0F38BF70470BD582F0FF0212F5803F0D
:10416000C8BF704700F1C040D8BF00F000407047A2
:1041700000F5000C5FEA4C0C48BF7047B0F1C0403E
:1041800000F073B890EA010F0CEAD11348BF42F473
:104190008072624538BF634504D280EA010000F0B6
:1041A0000040704710B500F01AF800BF8900013ECA
:1041B00000F007B800F009B85FEA410C5FEA1C6C38
:1041C00008D080EA010000F050B85FEA400C5FEAD6
:1041D0001C6CF6D14FF00040A0F5800070470EF146
:1041E000020E2EF0030E5EF8044B244204D44FEA74
:1041F0004102B2F17F4F11D84FEA4003B3F17F4F34
:104200000CD80ED14FEAD07CB2F17F4F0CEB4C0CA6
:104210000CF1020C08BF4CEBD17C04E04FF0080C11
:1042200001E04FEAD17C0CEB4C0324FA03F404F0D8
:104230000704B4F1040C06D20EEB840CBDE8104068
:104240004CF0010C6047DFE80CF0070802024FF069
:104250000040A0F5800010BD0846420018BFD2F112
:10426000807288BF00F0004010BDFF2141EAD050AD
:10427000C005704790EA010F48BF81F000413FF54B
:10428000BEAE421A04D882F00042A0EB02001144F4
:104290004FEAD0524FF07F4C1CEA410FA2EBD153B2
:1042A00018BF9CEA026F4AD04FF0004C4CEA002045
:1042B0004CEA012121FA03FCB0EB0C0C0FD412F0F4
:1042C000FE0F36D05FEA4C001DD5001240EBC25005
:1042D00038BF70471CF03F0F18BF70470BE0A2F1CA
:1042E00001025FEA1C2040EBC25038BF70471CF04F
:1042F0007F0F18BF7047C3F12003994014BF401EC1
:1043000020F00100704780084FEA122308BF704771
:10431000B0FA80FCA2EB0C02CCF1280C60FA0CF095
:1043200093EA122F04BF00EBC25070474FEAC370EC
:104330007047130A5FEADC1008BF7047F6E79CEA93
:10434000026F04D010EA5C0F08BF0020704710B560
:10435000FFF745FF40DFF63E81F000407047FCF775
:104360006EBAFFFF03F7CF3FFFFFFF03FFFF1BFF07
:10437000DFBF7FFF7FBFDFFF1BFFFF3FDFDFDFDF31
:104380003FFFFF1FE7F7FBFBFBFBF7EFFFFF03FF21
:10439000FF3FDFDFDFDF3FFFFF3FDFDFDFDFBFFFAD
:1043A000FF03FFFF7FBFDFFFFF7F7F7F7F7F7FBF39
:1043B000CFF3F9C73FFFFF7F9F7FFF7F9F7F7F7F07
:1043C0007F7F7FFFFF3FFFFFFFFFFF3FFF7FBFBFFD
:1043D000BF7FFFFFFFFFBFBFBFBF3FFF7FBFBFBFAD
:1043E0007FFF7F7F607F7F7F7E7977607F7F607FC9
:1043F0006F777B7C7B776F7F607F7F706E6E6E6E7A
:10440000767F7F7C73776F6F6F6F777B7F7F607F47
:104410007F706F6F6F6F707F7F706F6F6F6F777F61
:104420007F607D7E7D736F7F7F7F7F7F7F7F7F7FDC
:104430007F7F7F7F7C637D7E7F7E7C7F7F7F7F7FB2
:104440007F7F7F7F7F7F7C734F737C7F7F5F4F5742
:104450005B5C7F7F5F7F7F47797E7F7F605D5D5D97
:10446000637F003F010101F151505050A0002040F6
:1044700080402000002000000010109050301000FC
:10448000E0808080E000008040202040800000E04C
:10449000408000E0000000E02020A0A00000E0201C
:1044A000202020C00000E020202020E00000E0408C
:1044B0008000E00000E02020A0A00000000000003C
:1044C00000000800000040404000000408F0000028
:1044D00000000000000000000000000101010101D7
:1044E0003F00000000000003020282828180808081
:1044F000838080800002000000020302028282802A
:104500008380808083808003010101010300000318
:104510004040414340404043424242434040434286
:104520004242424140404342424242434040434073
:10453000404143404043424242434040404040406B
:104540004040424040404040404040444241404062
:1045500040404040404040404040404040400000DB
:10456000000000000000FC020101202030B0B0B0CB
:10457000B0302020010102FC00FC020101202030AB
:10458000B0B0B0B0302020010102FC0000000000FB
:1045900000C02010101020C00000E01010101060AB
:1045A0000000004020F00000E0101010E0000000CB
:1045B00000004020F0000020101010E0000000007B
:1045C0000000004020F000000000E0101010E000AB
:1045D00000E0101010E00000E0101010E0000000FB
:1045E000000000000000FF000000008F00202020DD
:1045F00020008F00000000FF00FF000000008F007F
:1046000020202020008F00000000FF00000000009C
:10461000000708101414081700000C111111110ED6
:1046200000000000001F00000E1111110E00020218
:10463000020000001F0000101814131000000000FA
:1046400000000000001F00000000091212110F00FE
:10465000000E1111110E00000F1010100F000000BD
:10466000000000000000FF000000808F809090900C
:1046700090808F80000000FF00FF000000808F808E
:1046800090909090808F80000000FF00000000005C
:10469000E42424C40404848404048404840484047A
:1046A00004848404040484840484840404048484CA
:1046B000E404040404E484840404840404048404FA
:1046C00004840404C4242444042424E42424E4C4EA
:1046D000040404C4E4442424C404442424C4000082
:1046E0000000007E404041464808000001010101F1
:1046F0000101000008080601000106080800000189
:10470000010101010100000808060100000000008D
:104710000F01010000070808070007080708070045
:10472000070A0A0B000F0000070A0A0B0007080817
:104730000F000000000F08080700012618060100FE
:1047400000040000040909060000000F00000F002B
:10475000070807000F0408090600084C4B484040B2
:104760007E00171717171717171717171717171789
:1047700017171717171717171717171717171717C9
:1047800017171717171717171717171717171717B9
:1047900017171717171717171717171717171717A9
:1047A0001717171717171717171717171717171799
:1047B0001717171717171717171717171717171789
:1047C0001717171717171717171717171717171779
:1047D0001717274F9E3C78F0E0C0800000000000D3
:1047E0000000444444444444444444444444444411
:1047F000444404040000000000000000000000C069
:1048000038C00000000000000000000000000000B0
:104810000000000000000000000000000000000098
:1048200000000000008040201000008040201000A8
:1048300000008040201000000000202020202020C8
:104840000000001020408000001020408000001078
:1048500020408000000102040913274F9E3C78F09D
:10486000E0C0040404040404040404040404040470
:10487000000000000000000000000000C038070138
:1048800000010F7080000000000000000000000028
:1048900000C038C00000000000C038C000000000A8
:1048A000000000020508102040020508102040000A
:1048B00002050810204000000202222222222222A9
:1048C00002020040201008050240201008050240A6
:1048D0002010080502000000000000000001020492
:1048E000091340404040404040404040404040402C
:1048F00040404040404040404060380701000000D8
:10490000000000000738C000000000000000C038B0
:10491000070100011FE000E01F01000107386040AF
:104920004040404040404040404040404040000007
:10493000008000008080808080C080808080800037
:104940000000008080808080808080808000000067
:104950000000808080808080808080808080000057
:104960000000000000000000000000000000000047
:104970000000000000000000000000000000000037
:10498000000000000000011EE0000000E01E010029
:104990000000000000010E01000000000000000007
:1049A0000000000000000000000000000000000007
:1049B0008080C33000FE82BAAAAAAABA82FE000092
:1049C000000000FF8888888888888888FF000000A9
:1049D0000000FF2024E42424E4242424A420000054
:1049E0000000C8902040800000000000000000008F
:1049F00000000000000000000000000000000000B7
:104A00000000000000000000000F700F0000000018
:104A10000000000000000000000000000000000096
:104A20000000000000000000000000000000000086
:104A300000001F0008281A0A2A3A0A0A1A28080041
:104A400020100C0300000000000010201F000000D8
:104A5000100C0300003F10080001020508101000B0
:104A60000000070F1F3E7CF9F2E4C8902040800050
:104A7000000000000000FE121212020200FC8484FA
:104A8000848484FC0000FC141434549C00000084D2
:104A900000000000FE808080808000FC000000FCA0
:104AA00008102040FC0000040810E010080400FC7E
:104AB00080808080FC000000FC949494848400003A
:104AC000FC84848484CC0000FC10101010FC0000D6
:104AD00000FC94949484840000FC08102040FC00A6
:104AE00000000000000000000103070F1F3E7CF9DA
:104AF000F2E4E8E8E8E8E8E8E8E8E8E8E8E8E8E830
:104B0000E8E8E8E8E8E8E8E8E8E8E8E8E8E8E8E825
:104B1000E8E8E8E8E8E8E8E8E8E8E8E8E8E8E8E815
:104B2000E8E8E8E8E8E8E8E8E8E8E8E8E8E8E8E805
:104B3000E8E8E8E8E8E8E8E8E8E8E8E8E8E8E8E8F5
:104B4000E8E8E8E8E8E8E8E8E8E8E8E8E8E8E8E8E5
:104B5000E8E8E8E8E8E8E8E8E8E8E8E8E8E8E8E8D5
:104B6000E8E80000000000000000002F0000000046
:104B70000700070000147F147F1400242A7F2A12E4
:104B800000626408132300364955225000000503D3
:104B9000000000001C224100000041221C00001403
:104BA000083E08140008083E0808000000A0600045
:104BB00000080808080800006060000000201008D5
:104BC0000402003E5149453E0000427F4000004241
:104BD00061514946002141454B31001814127F10A4
:104BE000002745454539003C4A49493000017109D3
:104BF000050300364949493600064949291E000087
:104C0000363600000000563600000008142241002D
:104C1000001414141414000041221408000201515D
:104C2000090600324959513E007C1211127C007F66
:104C300049494936003E41414122007F4141221C01
:104C4000007F49494941007F09090901003E414966
:104C5000497A007F0808087F0000417F410000205A
:104C600040413F01007F08142241007F4040404006
:104C7000007F020C027F007F0408107F003E41414C
:104C8000413E007F09090906003E4151215E007F37
:104C9000091929460046494949310001017F0101AE
:104CA000003F4040403F001F2040201F003F403851
:104CB000403F006314081463000708700807006190
:104CC0005149454300007F41410000552A552A556E
:104CD000000041417F000004020102040040404006
:104CE0004040000001020400002054545478007F2A
:104CF0004844443800384444442000384444487F01
:104D000000385454541800087E0901020018A4A465
:104D1000A47C007F080404780000447D400000402B
:104D200080847D00007F102844000000417F400007
:104D3000007C04180478007C08040478003844449B
:104D4000443800FC242424180018242418FC007C77
:104D50000804040800485454542000043F444020F0
:104D6000003C4040207C001C2040201C003C403087
:104D7000403C004428102844001CA0A0A07C004413
:104D800064544C4414141414141400000000000063
:104D900000000000000000000000000000F800001B
:104DA0000000000000333000000000100C06100C62
:104DB0000600000000000000000040C07840C078FD
:104DC0004000043F04043F040400007088FC0830E5
:104DD0000000001820FF211E0000F008F000E0187D
:104DE000000000211C031E211E0000F00888700036
:104DF00000001E2123241927211010160E00000088
:104E000000000000000000000000000000E01804A6
:104E10000200000000071820400000020418E00013
:104E200000000040201807000000404080F0804053
:104E300040000202010F01020200000000F0000029
:104E400000000101011F010101000000000000003D
:104E5000000080B0700000000000000000000000B2
:104E6000000000010101010101010000000000003B
:104E700000000030300000000000000000008060F2
:104E80001804006018060100000000E01008081077
:104E9000E000000F102020100F00001010F800009C
:104EA00000000020203F2020000000700808088833
:104EB0007000003028242221300000300888884803
:104EC00030000018202020110E000000C02010F833
:104ED000000000070424243F240000F80888880804
:104EE00008000019212020110E0000E01088881809
:104EF0000000000F112020110E0000380808C838EB
:104F000008000000003F00000000007088080888CA
:104F10007000001C222121221C0000E01008081053
:104F2000E0000000312222110F00000000C0C0008C
:104F30000000000000303000000000000080000091
:104F40000000000080600000000000008040201091
:104F5000080000010204081020004040404040408A
:104F600040000404040404040400000810204080ED
:104F70000000002010080402010000704808080822
:104F8000F0000000003036010000C030C828E810F2
:104F9000E0000718272423140B000000C038E000AD
:104FA0000000203C23020227382008F888888870F7
:104FB0000000203F202020110E00C0300808080803
:104FC0003800071820202010080008F808080810EA
:104FD000E000203F202020100F0008F88888E80813
:104FE0001000203F20202320180008F88888E808B7
:104FF0001000203F200003000000C03008080838DF
:10500000000007182020221E020008F808000008EF
:10501000F808203F210101213F20000808F8080876
:1050200000000020203F2020000000000808F808B1
:105030000800C08080807F00000008F888C0281821
:105040000800203F20012638200008F80800000052
:105050000000203F20202020300008F8F800F8F859
:105060000800203F003F003F200008F830C0000843
:10507000F808203F200007183F00E010080808103B
:10508000E0000F10202020100F0008F80808080882
:10509000F000203F210101010000E0100808081085
:1050A000E0000F18242438504F0008F888888888BA
:1050B0007000203F2000030C302000708808080892
:1050C00038000038202121221C00180808F80808A0
:1050D00018000000203F2000000008F80800000829
:1050E000F808001F202020201F000878880000C832
:1050F0003808000007380E010000F80800F8000822
:10510000F800033C0700073C03000818688080682B
:10511000180820302C03032C30200838C800C83869
:1051200008000000203F2000000010080808C838D0
:1051300008002038262120201800000000FE02026E
:1051400002000000007F40404000000C30C0000022
:105150000000000000010638C00000020202FE004C
:105160000000004040407F000000000004020202F6
:10517000040000000000000000000000000000002B
:105180000000808080808080808000020204000017
:10519000000000000000000000000000808080800F
:1051A00000000019242222223F2008F800808000FD
:1051B0000000003F112020110E00000000808080C0
:1051C0000000000E112020201100000000808088C7
:1051D000F800000E112020103F2000008080808009
:1051E0000000001F222222221300008080F0888805
:1051F00088180020203F2020000000008080808050
:105200008000006B94949493600008F80080808084
:105210000000203F210000203F20008098980000DF
:1052200000000020203F202000000000008098980F
:10523000000000C08080807F000008F800008080AF
:105240008000203F24022D302000000808F80000D4
:1052500000000020203F202000008080808080808F
:105260008000203F20003F20003F80800080808021
:105270000000203F210000203F200000808080802F
:105280000000001F202020201F0080800080800060
:10529000000080FFA12020110E000000008080800F
:1052A0008000000E112020A0FF8080808000808080
:1052B000800020203F2120000100000080808080AD
:1052C00080000033242424241900008080E08080A2
:1052D00000000000001F20200000808000000080EF
:1052E0008000001F202020103F2080808000008050
:1052F000808000010E300806010080800080008060
:1053000080800F300C030C300F0000808000808004
:1053100080000020312E0E3120008080800000802F
:10532000808080818E7018060100008080808080DF
:1053300080000021302C2221300000000000807C01
:10534000020200000000003F404000000000FF009B
:10535000000000000000FF0000000002027C80004E
:1053600000000040403F0000000000060101020272
:10537000040400000000000000000C030405060FF8
:1053800008090A0B000D16151413121110170E0040
:105390001F20271E1D1C1B1A191800212A29282F1F
:1053A000262524232200342B2C2D2E373031323366
:1053B0000036353F38393A3B3C3D3E004000000066
:1053C000000100002000000000020000800000003A
:1053D0000020000000400000040000080000000061
:1053E0000000000200010000100000000240000068
:1053F000000000A00000000005400000000000C800
:10540000000000000C4000000000409C0000000074
:10541000194000000020BCBE000000003440000025
:10542000BFC91B8E00000004B5400000504BCFD018
:105430006607E2CF010000006C4100003E8251AAE5
:10544000DFEEA73401000000D9420000DCB5A0E285
:105450003A301F97FFFFFFFFB4450000FD25A0C8AD
:10546000E9A3C14FFFFFFFFFFF3F000000000080E6
:1054700000000000FF3F000000000080000000006E
:10548000BC54000800000020800000006C010008EF
:105490003C55000880000020100900008801000829
:1054A0001C00000043000000F8FFFFFF0C0000009C
:1054B0000E0000000F0000002E00000000000000A1
:1054C00000000000000000000000000000000000DC
:1054D00000000000000000000000000000000000CC
:1054E000000000000000000000A24A0400000000CC
:1054F0000000000001020304060708090000000084
:10550000000000000000000000000030303A3030A1
:105510003A303000323031332F31302F32302037B3
:105520005700000000000000000000000000000024
:0C5530000000000000000000000000006F
:0400000508000131BD
:00000001FF
